{
    "abi": [
        {
            "type": "constructor",
            "inputs": [
                {
                    "name": "name",
                    "type": "string",
                    "internalType": "string"
                },
                {
                    "name": "symbol",
                    "type": "string",
                    "internalType": "string"
                }
            ],
            "stateMutability": "nonpayable"
        },
        {
            "type": "function",
            "name": "approve",
            "inputs": [
                {
                    "name": "to",
                    "type": "address",
                    "internalType": "address"
                },
                {
                    "name": "tokenId",
                    "type": "uint256",
                    "internalType": "uint256"
                }
            ],
            "outputs": [],
            "stateMutability": "nonpayable"
        },
        {
            "type": "function",
            "name": "balanceOf",
            "inputs": [
                {
                    "name": "owner",
                    "type": "address",
                    "internalType": "address"
                }
            ],
            "outputs": [
                {
                    "name": "",
                    "type": "uint256",
                    "internalType": "uint256"
                }
            ],
            "stateMutability": "view"
        },
        {
            "type": "function",
            "name": "getApproved",
            "inputs": [
                {
                    "name": "tokenId",
                    "type": "uint256",
                    "internalType": "uint256"
                }
            ],
            "outputs": [
                {
                    "name": "",
                    "type": "address",
                    "internalType": "address"
                }
            ],
            "stateMutability": "view"
        },
        {
            "type": "function",
            "name": "getTokensOfOwner",
            "inputs": [
                {
                    "name": "owner",
                    "type": "address",
                    "internalType": "address"
                }
            ],
            "outputs": [
                {
                    "name": "",
                    "type": "uint256[]",
                    "internalType": "uint256[]"
                }
            ],
            "stateMutability": "view"
        },
        {
            "type": "function",
            "name": "isApprovedForAll",
            "inputs": [
                {
                    "name": "owner",
                    "type": "address",
                    "internalType": "address"
                },
                {
                    "name": "operator",
                    "type": "address",
                    "internalType": "address"
                }
            ],
            "outputs": [
                {
                    "name": "",
                    "type": "bool",
                    "internalType": "bool"
                }
            ],
            "stateMutability": "view"
        },
        {
            "type": "function",
            "name": "mintToken",
            "inputs": [
                {
                    "name": "owner",
                    "type": "address",
                    "internalType": "address"
                },
                {
                    "name": "ipfsHash",
                    "type": "string",
                    "internalType": "string"
                }
            ],
            "outputs": [
                {
                    "name": "",
                    "type": "uint256",
                    "internalType": "uint256"
                }
            ],
            "stateMutability": "nonpayable"
        },
        {
            "type": "function",
            "name": "name",
            "inputs": [],
            "outputs": [
                {
                    "name": "",
                    "type": "string",
                    "internalType": "string"
                }
            ],
            "stateMutability": "view"
        },
        {
            "type": "function",
            "name": "ownerOf",
            "inputs": [
                {
                    "name": "tokenId",
                    "type": "uint256",
                    "internalType": "uint256"
                }
            ],
            "outputs": [
                {
                    "name": "",
                    "type": "address",
                    "internalType": "address"
                }
            ],
            "stateMutability": "view"
        },
        {
            "type": "function",
            "name": "safeTransferFrom",
            "inputs": [
                {
                    "name": "from",
                    "type": "address",
                    "internalType": "address"
                },
                {
                    "name": "to",
                    "type": "address",
                    "internalType": "address"
                },
                {
                    "name": "tokenId",
                    "type": "uint256",
                    "internalType": "uint256"
                }
            ],
            "outputs": [],
            "stateMutability": "nonpayable"
        },
        {
            "type": "function",
            "name": "safeTransferFrom",
            "inputs": [
                {
                    "name": "from",
                    "type": "address",
                    "internalType": "address"
                },
                {
                    "name": "to",
                    "type": "address",
                    "internalType": "address"
                },
                {
                    "name": "tokenId",
                    "type": "uint256",
                    "internalType": "uint256"
                },
                {
                    "name": "data",
                    "type": "bytes",
                    "internalType": "bytes"
                }
            ],
            "outputs": [],
            "stateMutability": "nonpayable"
        },
        {
            "type": "function",
            "name": "setApprovalForAll",
            "inputs": [
                {
                    "name": "operator",
                    "type": "address",
                    "internalType": "address"
                },
                {
                    "name": "approved",
                    "type": "bool",
                    "internalType": "bool"
                }
            ],
            "outputs": [],
            "stateMutability": "nonpayable"
        },
        {
            "type": "function",
            "name": "supportsInterface",
            "inputs": [
                {
                    "name": "interfaceId",
                    "type": "bytes4",
                    "internalType": "bytes4"
                }
            ],
            "outputs": [
                {
                    "name": "",
                    "type": "bool",
                    "internalType": "bool"
                }
            ],
            "stateMutability": "view"
        },
        {
            "type": "function",
            "name": "symbol",
            "inputs": [],
            "outputs": [
                {
                    "name": "",
                    "type": "string",
                    "internalType": "string"
                }
            ],
            "stateMutability": "view"
        },
        {
            "type": "function",
            "name": "tokenURI",
            "inputs": [
                {
                    "name": "tokenId",
                    "type": "uint256",
                    "internalType": "uint256"
                }
            ],
            "outputs": [
                {
                    "name": "",
                    "type": "string",
                    "internalType": "string"
                }
            ],
            "stateMutability": "view"
        },
        {
            "type": "function",
            "name": "totalMinted",
            "inputs": [],
            "outputs": [
                {
                    "name": "",
                    "type": "uint256",
                    "internalType": "uint256"
                }
            ],
            "stateMutability": "view"
        },
        {
            "type": "function",
            "name": "transferFrom",
            "inputs": [
                {
                    "name": "from",
                    "type": "address",
                    "internalType": "address"
                },
                {
                    "name": "to",
                    "type": "address",
                    "internalType": "address"
                },
                {
                    "name": "tokenId",
                    "type": "uint256",
                    "internalType": "uint256"
                }
            ],
            "outputs": [],
            "stateMutability": "nonpayable"
        },
        {
            "type": "event",
            "name": "Approval",
            "inputs": [
                {
                    "name": "owner",
                    "type": "address",
                    "indexed": true,
                    "internalType": "address"
                },
                {
                    "name": "approved",
                    "type": "address",
                    "indexed": true,
                    "internalType": "address"
                },
                {
                    "name": "tokenId",
                    "type": "uint256",
                    "indexed": true,
                    "internalType": "uint256"
                }
            ],
            "anonymous": false
        },
        {
            "type": "event",
            "name": "ApprovalForAll",
            "inputs": [
                {
                    "name": "owner",
                    "type": "address",
                    "indexed": true,
                    "internalType": "address"
                },
                {
                    "name": "operator",
                    "type": "address",
                    "indexed": true,
                    "internalType": "address"
                },
                {
                    "name": "approved",
                    "type": "bool",
                    "indexed": false,
                    "internalType": "bool"
                }
            ],
            "anonymous": false
        },
        {
            "type": "event",
            "name": "BatchMetadataUpdate",
            "inputs": [
                {
                    "name": "_fromTokenId",
                    "type": "uint256",
                    "indexed": false,
                    "internalType": "uint256"
                },
                {
                    "name": "_toTokenId",
                    "type": "uint256",
                    "indexed": false,
                    "internalType": "uint256"
                }
            ],
            "anonymous": false
        },
        {
            "type": "event",
            "name": "MetadataUpdate",
            "inputs": [
                {
                    "name": "_tokenId",
                    "type": "uint256",
                    "indexed": false,
                    "internalType": "uint256"
                }
            ],
            "anonymous": false
        },
        {
            "type": "event",
            "name": "Transfer",
            "inputs": [
                {
                    "name": "from",
                    "type": "address",
                    "indexed": true,
                    "internalType": "address"
                },
                {
                    "name": "to",
                    "type": "address",
                    "indexed": true,
                    "internalType": "address"
                },
                {
                    "name": "tokenId",
                    "type": "uint256",
                    "indexed": true,
                    "internalType": "uint256"
                }
            ],
            "anonymous": false
        },
        {
            "type": "error",
            "name": "ERC721IncorrectOwner",
            "inputs": [
                {
                    "name": "sender",
                    "type": "address",
                    "internalType": "address"
                },
                {
                    "name": "tokenId",
                    "type": "uint256",
                    "internalType": "uint256"
                },
                {
                    "name": "owner",
                    "type": "address",
                    "internalType": "address"
                }
            ]
        },
        {
            "type": "error",
            "name": "ERC721InsufficientApproval",
            "inputs": [
                {
                    "name": "operator",
                    "type": "address",
                    "internalType": "address"
                },
                {
                    "name": "tokenId",
                    "type": "uint256",
                    "internalType": "uint256"
                }
            ]
        },
        {
            "type": "error",
            "name": "ERC721InvalidApprover",
            "inputs": [
                {
                    "name": "approver",
                    "type": "address",
                    "internalType": "address"
                }
            ]
        },
        {
            "type": "error",
            "name": "ERC721InvalidOperator",
            "inputs": [
                {
                    "name": "operator",
                    "type": "address",
                    "internalType": "address"
                }
            ]
        },
        {
            "type": "error",
            "name": "ERC721InvalidOwner",
            "inputs": [
                {
                    "name": "owner",
                    "type": "address",
                    "internalType": "address"
                }
            ]
        },
        {
            "type": "error",
            "name": "ERC721InvalidReceiver",
            "inputs": [
                {
                    "name": "receiver",
                    "type": "address",
                    "internalType": "address"
                }
            ]
        },
        {
            "type": "error",
            "name": "ERC721InvalidSender",
            "inputs": [
                {
                    "name": "sender",
                    "type": "address",
                    "internalType": "address"
                }
            ]
        },
        {
            "type": "error",
            "name": "ERC721NonexistentToken",
            "inputs": [
                {
                    "name": "tokenId",
                    "type": "uint256",
                    "internalType": "uint256"
                }
            ]
        }
    ],
    "bytecode": {
        "object": "0x608060405234801561000f575f5ffd5b5060405161194138038061194183398101604081905261002e916100ef565b81815f61003b83826101d8565b50600161004882826101d8565b5050505050610292565b634e487b7160e01b5f52604160045260245ffd5b5f82601f830112610075575f5ffd5b81516001600160401b0381111561008e5761008e610052565b604051601f8201601f19908116603f011681016001600160401b03811182821017156100bc576100bc610052565b6040528181528382016020018510156100d3575f5ffd5b8160208501602083015e5f918101602001919091529392505050565b5f5f60408385031215610100575f5ffd5b82516001600160401b03811115610115575f5ffd5b61012185828601610066565b602085015190935090506001600160401b0381111561013e575f5ffd5b61014a85828601610066565b9150509250929050565b600181811c9082168061016857607f821691505b60208210810361018657634e487b7160e01b5f52602260045260245ffd5b50919050565b601f8211156101d357805f5260205f20601f840160051c810160208510156101b15750805b601f840160051c820191505b818110156101d0575f81556001016101bd565b50505b505050565b81516001600160401b038111156101f1576101f1610052565b610205816101ff8454610154565b8461018c565b6020601f821160018114610237575f83156102205750848201515b5f19600385901b1c1916600184901b1784556101d0565b5f84815260208120601f198516915b828110156102665787850151825560209485019460019092019101610246565b508482101561028357868401515f19600387901b60f8161c191681555b50505050600190811b01905550565b6116a28061029f5f395ff3fe608060405234801561000f575f5ffd5b50600436106100fb575f3560e01c80636352211e11610093578063a2309ff811610063578063a2309ff814610224578063b88d4fde1461022c578063c87b56dd1461023f578063e985e9c514610252575f5ffd5b80636352211e146101e357806370a08231146101f657806395d89b4114610209578063a22cb46514610211575f5ffd5b806323b872dd116100ce57806323b872dd1461017c5780633d02d0c91461018f57806342842e0e146101b05780635de6dc55146101c3575f5ffd5b806301ffc9a7146100ff57806306fdde0314610127578063081812fc1461013c578063095ea7b314610167575b5f5ffd5b61011261010d36600461111d565b610265565b60405190151581526020015b60405180910390f35b61012f610275565b60405161011e9190611166565b61014f61014a366004611178565b610304565b6040516001600160a01b03909116815260200161011e565b61017a6101753660046111aa565b61032b565b005b61017a61018a3660046111d2565b61033a565b6101a261019d366004611297565b61042a565b60405190815260200161011e565b61017a6101be3660046111d2565b6104a7565b6101d66101d13660046112f5565b6104c1565b60405161011e919061130e565b61014f6101f1366004611178565b61052a565b6101a26102043660046112f5565b610534565b61012f610579565b61017a61021f366004611350565b610588565b6007546101a2565b61017a61023a366004611389565b610593565b61012f61024d366004611178565b610680565b610112610260366004611400565b61068b565b5f61026f826106b8565b92915050565b60605f805461028390611431565b80601f01602080910402602001604051908101604052809291908181526020018280546102af90611431565b80156102fa5780601f106102d1576101008083540402835291602001916102fa565b820191905f5260205f20905b8154815290600101906020018083116102dd57829003601f168201915b5050505050905090565b5f61030e826106dc565b505f828152600460205260409020546001600160a01b031661026f565b610336828233610714565b5050565b6001600160a01b0383166103955760405162461bcd60e51b815260206004820152601a60248201527f5472616e736665722066726f6d207a65726f206164647265737300000000000060448201526064015b60405180910390fd5b6001600160a01b0382166103e65760405162461bcd60e51b81526020600482015260186024820152775472616e7366657220746f207a65726f206164647265737360401b604482015260640161038c565b6103f08382610721565b6001600160a01b0382165f908152600860209081526040822080546001810182559083529120018190556104258383836107db565b505050565b600780545f918261043a8361147d565b909155505060075461044c848261085e565b610475818460405160200161046191906114ac565b604051602081830303815290604052610877565b6001600160a01b0384165f90815260086020908152604082208054600181018255908352912001819055905092915050565b61042583838360405180602001604052805f815250610593565b6001600160a01b0381165f9081526008602090815260409182902080548351818402810184019094528084526060939283018282801561051e57602002820191905f5260205f20905b81548152602001906001019080831161050a575b50505050509050919050565b5f61026f826106dc565b5f6001600160a01b03821661055e576040516322718ad960e21b81525f600482015260240161038c565b506001600160a01b03165f9081526003602052604090205490565b60606001805461028390611431565b6103363383836108c6565b6001600160a01b0384166105e95760405162461bcd60e51b815260206004820152601a60248201527f5472616e736665722066726f6d207a65726f2061646472657373000000000000604482015260640161038c565b6001600160a01b03831661063a5760405162461bcd60e51b81526020600482015260186024820152775472616e7366657220746f207a65726f206164647265737360401b604482015260640161038c565b6106448483610721565b6001600160a01b0383165f9081526008602090815260408220805460018101825590835291200182905561067a84848484610964565b50505050565b606061026f8261097c565b6001600160a01b039182165f90815260056020908152604080832093909416825291909152205460ff1690565b5f6001600160e01b03198216632483248360e11b148061026f575061026f82610a87565b5f818152600260205260408120546001600160a01b03168061026f57604051637e27328960e01b81526004810184905260240161038c565b6104258383836001610ad6565b6001600160a01b0382165f908152600860205260408120905b815481101561067a5782828281548110610756576107566114c7565b905f5260205f200154036107d35781548290610774906001906114db565b81548110610784576107846114c7565b905f5260205f20015482828154811061079f5761079f6114c7565b905f5260205f200181905550818054806107bb576107bb6114ee565b600190038181905f5260205f20015f9055905561067a565b60010161073a565b6001600160a01b03821661080457604051633250574960e11b81525f600482015260240161038c565b5f610810838333610bda565b9050836001600160a01b0316816001600160a01b03161461067a576040516364283d7b60e01b81526001600160a01b038086166004830152602482018490528216604482015260640161038c565b610336828260405180602001604052805f815250610ccc565b5f82815260066020526040902061088e8282611546565b506040518281527ff8e1a15aba9398e019f0b49df1a4fde98ee17ae345cb5f6b5e2c27f5033e8ce79060200160405180910390a15050565b6001600160a01b0382166108f857604051630b61174360e31b81526001600160a01b038316600482015260240161038c565b6001600160a01b038381165f81815260056020908152604080832094871680845294825291829020805460ff191686151590811790915591519182527f17307eab39ab6107e8899845ad3d59bd9653f200f220920489ca2b5937696c31910160405180910390a3505050565b61096f84848461033a565b61067a3385858585610cdf565b6060610987826106dc565b505f82815260066020526040812080546109a090611431565b80601f01602080910402602001604051908101604052809291908181526020018280546109cc90611431565b8015610a175780601f106109ee57610100808354040283529160200191610a17565b820191905f5260205f20905b8154815290600101906020018083116109fa57829003601f168201915b505050505090505f610a3360408051602081019091525f815290565b905080515f03610a44575092915050565b815115610a76578082604051602001610a5e929190611601565b60405160208183030381529060405292505050919050565b610a7f84610e07565b949350505050565b5f6001600160e01b031982166380ac58cd60e01b1480610ab757506001600160e01b03198216635b5e139f60e01b145b8061026f57506301ffc9a760e01b6001600160e01b031983161461026f565b8080610aea57506001600160a01b03821615155b15610bab575f610af9846106dc565b90506001600160a01b03831615801590610b255750826001600160a01b0316816001600160a01b031614155b8015610b385750610b36818461068b565b155b15610b615760405163a9fbf51f60e01b81526001600160a01b038416600482015260240161038c565b8115610ba95783856001600160a01b0316826001600160a01b03167f8c5be1e5ebec7d5bd14f71427d1e84f3dd0314c0f7b2291e5b200ac8c7c3b92560405160405180910390a45b505b50505f90815260046020526040902080546001600160a01b0319166001600160a01b0392909216919091179055565b5f828152600260205260408120546001600160a01b0390811690831615610c0657610c06818486610e78565b6001600160a01b03811615610c4057610c215f855f5f610ad6565b6001600160a01b0381165f90815260036020526040902080545f190190555b6001600160a01b03851615610c6e576001600160a01b0385165f908152600360205260409020805460010190555b5f8481526002602052604080822080546001600160a01b0319166001600160a01b0389811691821790925591518793918516917fddf252ad1be2c89b69c2b068fc378daa952ba7f163c4a11628f55a4df523b3ef91a4949350505050565b610cd68383610edc565b610425335f8585855b6001600160a01b0383163b15610e0057604051630a85bd0160e11b81526001600160a01b0384169063150b7a0290610d21908890889087908790600401611615565b6020604051808303815f875af1925050508015610d5b575060408051601f3d908101601f19168201909252610d5891810190611651565b60015b610dc2573d808015610d88576040519150601f19603f3d011682016040523d82523d5f602084013e610d8d565b606091505b5080515f03610dba57604051633250574960e11b81526001600160a01b038516600482015260240161038c565b805181602001fd5b6001600160e01b03198116630a85bd0160e11b14610dfe57604051633250574960e11b81526001600160a01b038516600482015260240161038c565b505b5050505050565b6060610e12826106dc565b505f610e2860408051602081019091525f815290565b90505f815111610e465760405180602001604052805f815250610e71565b80610e5084610f3d565b604051602001610e61929190611601565b6040516020818303038152906040525b9392505050565b610e83838383610fcd565b610425576001600160a01b038316610eb157604051637e27328960e01b81526004810182905260240161038c565b60405163177e802f60e01b81526001600160a01b03831660048201526024810182905260440161038c565b6001600160a01b038216610f0557604051633250574960e11b81525f600482015260240161038c565b5f610f1183835f610bda565b90506001600160a01b03811615610425576040516339e3563760e11b81525f600482015260240161038c565b60605f610f498361102e565b60010190505f8167ffffffffffffffff811115610f6857610f6861120c565b6040519080825280601f01601f191660200182016040528015610f92576020820181803683370190505b5090508181016020015b5f19016f181899199a1a9b1b9c1cb0b131b232b360811b600a86061a8153600a8504945084610f9c57509392505050565b5f6001600160a01b03831615801590610a7f5750826001600160a01b0316846001600160a01b031614806110065750611006848461068b565b80610a7f5750505f908152600460205260409020546001600160a01b03908116911614919050565b5f8072184f03e93ff9f4daa797ed6e38ed64bf6a1f0160401b831061106c5772184f03e93ff9f4daa797ed6e38ed64bf6a1f0160401b830492506040015b6d04ee2d6d415b85acef81000000008310611098576d04ee2d6d415b85acef8100000000830492506020015b662386f26fc1000083106110b657662386f26fc10000830492506010015b6305f5e10083106110ce576305f5e100830492506008015b61271083106110e257612710830492506004015b606483106110f4576064830492506002015b600a831061026f5760010192915050565b6001600160e01b03198116811461111a575f5ffd5b50565b5f6020828403121561112d575f5ffd5b8135610e7181611105565b5f81518084528060208401602086015e5f602082860101526020601f19601f83011685010191505092915050565b602081525f610e716020830184611138565b5f60208284031215611188575f5ffd5b5035919050565b80356001600160a01b03811681146111a5575f5ffd5b919050565b5f5f604083850312156111bb575f5ffd5b6111c48361118f565b946020939093013593505050565b5f5f5f606084860312156111e4575f5ffd5b6111ed8461118f565b92506111fb6020850161118f565b929592945050506040919091013590565b634e487b7160e01b5f52604160045260245ffd5b5f5f67ffffffffffffffff84111561123a5761123a61120c565b50604051601f19601f85018116603f0116810181811067ffffffffffffffff821117156112695761126961120c565b604052838152905080828401851015611280575f5ffd5b838360208301375f60208583010152509392505050565b5f5f604083850312156112a8575f5ffd5b6112b18361118f565b9150602083013567ffffffffffffffff8111156112cc575f5ffd5b8301601f810185136112dc575f5ffd5b6112eb85823560208401611220565b9150509250929050565b5f60208284031215611305575f5ffd5b610e718261118f565b602080825282518282018190525f918401906040840190835b81811015611345578351835260209384019390920191600101611327565b509095945050505050565b5f5f60408385031215611361575f5ffd5b61136a8361118f565b91506020830135801515811461137e575f5ffd5b809150509250929050565b5f5f5f5f6080858703121561139c575f5ffd5b6113a58561118f565b93506113b36020860161118f565b925060408501359150606085013567ffffffffffffffff8111156113d5575f5ffd5b8501601f810187136113e5575f5ffd5b6113f487823560208401611220565b91505092959194509250565b5f5f60408385031215611411575f5ffd5b61141a8361118f565b91506114286020840161118f565b90509250929050565b600181811c9082168061144557607f821691505b60208210810361146357634e487b7160e01b5f52602260045260245ffd5b50919050565b634e487b7160e01b5f52601160045260245ffd5b5f6001820161148e5761148e611469565b5060010190565b5f81518060208401855e5f93019283525090919050565b66697066733a2f2f60c81b81525f610e716007830184611495565b634e487b7160e01b5f52603260045260245ffd5b8181038181111561026f5761026f611469565b634e487b7160e01b5f52603160045260245ffd5b601f82111561042557805f5260205f20601f840160051c810160208510156115275750805b601f840160051c820191505b81811015610e00575f8155600101611533565b815167ffffffffffffffff8111156115605761156061120c565b6115748161156e8454611431565b84611502565b6020601f8211600181146115a6575f831561158f5750848201515b5f19600385901b1c1916600184901b178455610e00565b5f84815260208120601f198516915b828110156115d557878501518255602094850194600190920191016115b5565b50848210156115f257868401515f19600387901b60f8161c191681555b50505050600190811b01905550565b5f610a7f61160f8386611495565b84611495565b6001600160a01b03858116825284166020820152604081018390526080606082018190525f9061164790830184611138565b9695505050505050565b5f60208284031215611661575f5ffd5b8151610e718161110556fea26469706673582212202d211ef37c88d4d8aeaf0d4f9d913e41344c449add04518fa8dfea255b4b257364736f6c634300081c0033",
        "linkReferences": {}
    },
    "methodIdentifiers": {
        "approve(address,uint256)": "095ea7b3",
        "balanceOf(address)": "70a08231",
        "getApproved(uint256)": "081812fc",
        "getTokensOfOwner(address)": "5de6dc55",
        "isApprovedForAll(address,address)": "e985e9c5",
        "mintToken(address,string)": "3d02d0c9",
        "name()": "06fdde03",
        "ownerOf(uint256)": "6352211e",
        "safeTransferFrom(address,address,uint256)": "42842e0e",
        "safeTransferFrom(address,address,uint256,bytes)": "b88d4fde",
        "setApprovalForAll(address,bool)": "a22cb465",
        "supportsInterface(bytes4)": "01ffc9a7",
        "symbol()": "95d89b41",
        "tokenURI(uint256)": "c87b56dd",
        "totalMinted()": "a2309ff8",
        "transferFrom(address,address,uint256)": "23b872dd"
    },
    "id": 2
}